{
  "contractName": "SupplyChain",
  "abi": [
    {
      "anonymous": false,
      "inputs": [
        {
          "indexed": false,
          "internalType": "address",
          "name": "participantAddress",
          "type": "address"
        },
        {
          "indexed": false,
          "internalType": "string",
          "name": "participantType",
          "type": "string"
        }
      ],
      "name": "ParticipantOnboarded",
      "type": "event"
    },
    {
      "anonymous": false,
      "inputs": [
        {
          "indexed": false,
          "internalType": "string",
          "name": "batchId",
          "type": "string"
        },
        {
          "indexed": false,
          "internalType": "address",
          "name": "producer",
          "type": "address"
        }
      ],
      "name": "ProductAdded",
      "type": "event"
    },
    {
      "anonymous": false,
      "inputs": [
        {
          "indexed": false,
          "internalType": "string",
          "name": "batchId",
          "type": "string"
        },
        {
          "indexed": false,
          "internalType": "bool",
          "name": "isVerified",
          "type": "bool"
        },
        {
          "indexed": false,
          "internalType": "bool",
          "name": "isFlagged",
          "type": "bool"
        }
      ],
      "name": "ProductStatusUpdated",
      "type": "event"
    },
    {
      "inputs": [
        {
          "internalType": "address",
          "name": "",
          "type": "address"
        }
      ],
      "name": "participants",
      "outputs": [
        {
          "internalType": "address",
          "name": "participantAddress",
          "type": "address"
        },
        {
          "internalType": "string",
          "name": "participantType",
          "type": "string"
        },
        {
          "internalType": "bool",
          "name": "isVerified",
          "type": "bool"
        }
      ],
      "stateMutability": "view",
      "type": "function",
      "constant": true
    },
    {
      "inputs": [
        {
          "internalType": "string",
          "name": "",
          "type": "string"
        }
      ],
      "name": "products",
      "outputs": [
        {
          "internalType": "string",
          "name": "batchId",
          "type": "string"
        },
        {
          "internalType": "string",
          "name": "ipfsHash",
          "type": "string"
        },
        {
          "internalType": "address",
          "name": "producer",
          "type": "address"
        },
        {
          "internalType": "address",
          "name": "retailer",
          "type": "address"
        },
        {
          "internalType": "bool",
          "name": "isVerified",
          "type": "bool"
        },
        {
          "internalType": "bool",
          "name": "isFlagged",
          "type": "bool"
        }
      ],
      "stateMutability": "view",
      "type": "function",
      "constant": true
    },
    {
      "inputs": [
        {
          "internalType": "address",
          "name": "_participantAddress",
          "type": "address"
        },
        {
          "internalType": "string",
          "name": "_participantType",
          "type": "string"
        }
      ],
      "name": "onboardParticipant",
      "outputs": [],
      "stateMutability": "nonpayable",
      "type": "function"
    },
    {
      "inputs": [
        {
          "internalType": "address",
          "name": "_participantAddress",
          "type": "address"
        }
      ],
      "name": "verifyParticipant",
      "outputs": [],
      "stateMutability": "nonpayable",
      "type": "function"
    },
    {
      "inputs": [
        {
          "internalType": "string",
          "name": "_batchId",
          "type": "string"
        },
        {
          "internalType": "string",
          "name": "_ipfsHash",
          "type": "string"
        }
      ],
      "name": "addProduct",
      "outputs": [],
      "stateMutability": "nonpayable",
      "type": "function"
    },
    {
      "inputs": [
        {
          "internalType": "string",
          "name": "_batchId",
          "type": "string"
        },
        {
          "internalType": "address",
          "name": "_transporter",
          "type": "address"
        }
      ],
      "name": "addTransporter",
      "outputs": [],
      "stateMutability": "nonpayable",
      "type": "function"
    },
    {
      "inputs": [
        {
          "internalType": "string",
          "name": "_batchId",
          "type": "string"
        },
        {
          "internalType": "address",
          "name": "_retailer",
          "type": "address"
        }
      ],
      "name": "setRetailer",
      "outputs": [],
      "stateMutability": "nonpayable",
      "type": "function"
    },
    {
      "inputs": [
        {
          "internalType": "string",
          "name": "_batchId",
          "type": "string"
        }
      ],
      "name": "flagProduct",
      "outputs": [],
      "stateMutability": "nonpayable",
      "type": "function"
    },
    {
      "inputs": [
        {
          "internalType": "string",
          "name": "_batchId",
          "type": "string"
        }
      ],
      "name": "verifyProduct",
      "outputs": [],
      "stateMutability": "nonpayable",
      "type": "function"
    },
    {
      "inputs": [
        {
          "internalType": "string",
          "name": "_batchId",
          "type": "string"
        }
      ],
      "name": "getProduct",
      "outputs": [
        {
          "components": [
            {
              "internalType": "string",
              "name": "batchId",
              "type": "string"
            },
            {
              "internalType": "string",
              "name": "ipfsHash",
              "type": "string"
            },
            {
              "internalType": "address",
              "name": "producer",
              "type": "address"
            },
            {
              "internalType": "address[]",
              "name": "transporters",
              "type": "address[]"
            },
            {
              "internalType": "address",
              "name": "retailer",
              "type": "address"
            },
            {
              "internalType": "bool",
              "name": "isVerified",
              "type": "bool"
            },
            {
              "internalType": "bool",
              "name": "isFlagged",
              "type": "bool"
            }
          ],
          "internalType": "struct SupplyChain.Product",
          "name": "",
          "type": "tuple"
        }
      ],
      "stateMutability": "view",
      "type": "function",
      "constant": true
    }
  ],
  "bytecode": "0x608060405234801561001057600080fd5b506112f6806100206000396000f3fe608060405234801561001057600080fd5b506004361061009e5760003560e01c806392efc4531161006657806392efc4531461013b578063ca2efb551461014e578063cd7ff11814610161578063d9f4753314610174578063dfc06076146101875761009e565b80630186a423146100a357806309e69ede146100d157806320587ddc146100f3578063643a76951461010857806368111cce1461011b575b600080fd5b6100b66100b1366004610dd2565b61019a565b6040516100c896959493929190610fb9565b60405180910390f35b6100e46100df366004610d65565b610301565b6040516100c893929190610f2f565b610106610101366004610e0d565b6103b9565b005b610106610116366004610d65565b61049c565b61012e610129366004610dd2565b6104c3565b6040516100c89190611162565b610106610149366004610dd2565b6106ca565b61010661015c366004610e59565b6107a0565b61010661016f366004610e0d565b61093f565b610106610182366004610dd2565b610a0b565b610106610195366004610d86565b610af8565b80516020818301810180516001825292820191909301209152805481906101c09061126f565b80601f01602080910402602001604051908101604052809291908181526020018280546101ec9061126f565b80156102395780601f1061020e57610100808354040283529160200191610239565b820191906000526020600020905b81548152906001019060200180831161021c57829003601f168201915b50505050509080600101805461024e9061126f565b80601f016020809104026020016040519081016040528092919081815260200182805461027a9061126f565b80156102c75780601f1061029c576101008083540402835291602001916102c7565b820191906000526020600020905b8154815290600101906020018083116102aa57829003601f168201915b505050600284015460049094015492936001600160a01b0390811693908116925060ff600160a01b820481169250600160a81b9091041686565b600060208190529081526040902080546001820180546001600160a01b03909216929161032d9061126f565b80601f01602080910402602001604051908101604052809291908181526020018280546103599061126f565b80156103a65780601f1061037b576101008083540402835291602001916103a6565b820191906000526020600020905b81548152906001019060200180831161038957829003601f168201915b5050506002909301549192505060ff1683565b3360009081526020819052604090206002015460ff166103f45760405162461bcd60e51b81526004016103eb9061105d565b60405180910390fd5b336001600160a01b031660018360405161040e9190610eef565b908152604051908190036020019020600201546001600160a01b0316146104475760405162461bcd60e51b81526004016103eb90611094565b6001826040516104579190610eef565b90815260405160209181900382019020600301805460018101825560009182529190200180546001600160a01b0319166001600160a01b039290921691909117905550565b6001600160a01b03166000908152602081905260409020600201805460ff19166001179055565b6104cb610ba4565b6001826040516104db9190610eef565b90815260200160405180910390206040518060e00160405290816000820180546105049061126f565b80601f01602080910402602001604051908101604052809291908181526020018280546105309061126f565b801561057d5780601f106105525761010080835404028352916020019161057d565b820191906000526020600020905b81548152906001019060200180831161056057829003601f168201915b505050505081526020016001820180546105969061126f565b80601f01602080910402602001604051908101604052809291908181526020018280546105c29061126f565b801561060f5780601f106105e45761010080835404028352916020019161060f565b820191906000526020600020905b8154815290600101906020018083116105f257829003601f168201915b505050918352505060028201546001600160a01b0316602080830191909152600383018054604080518285028101850182528281529401939283018282801561068157602002820191906000526020600020905b81546001600160a01b03168152600190910190602001808311610663575b5050509183525050600491909101546001600160a01b038116602083015260ff600160a01b8204811615156040840152600160a81b90910416151560609091015290505b919050565b3360009081526020819052604090206002015460ff166106fc5760405162461bcd60e51b81526004016103eb9061100f565b6001808260405161070d9190610eef565b908152602001604051809103902060040160146101000a81548160ff0219169083151502179055507f6b861e3b476236514a7419e05b94b8ff6436f26e332989f3dfbec308f5ad875a81600180846040516107689190610eef565b9081526040519081900360200181206004015461079593929160ff600160a81b9092049190911690610f8f565b60405180910390a150565b3360009081526020819052604090206002015460ff166107d25760405162461bcd60e51b81526004016103eb9061105d565b6040805160e0810182528381526020808201849052338284015282516000808252918101845260608301526080820181905260a0820181905260c08201529051600190610820908590610eef565b9081526020016040518091039020600082015181600001908051906020019061084a929190610bdf565b5060208281015180516108639260018501920190610bdf565b5060408201516002820180546001600160a01b0319166001600160a01b03909216919091179055606082015180516108a5916003840191602090910190610c63565b5060808201516004909101805460a084015160c0909401511515600160a81b0260ff60a81b19941515600160a01b0260ff60a01b196001600160a01b039095166001600160a01b0319909316929092179390931617929092161790556040517f4cc39cf92556f56ba17184d656cf1bbcfd5f8e8d7b1071d0e295017b9f70f41b906109339084903390610f65565b60405180910390a15050565b3360009081526020819052604090206002015460ff166109715760405162461bcd60e51b81526004016103eb9061105d565b336001600160a01b031660018360405161098b9190610eef565b908152604051908190036020019020600201546001600160a01b0316146109c45760405162461bcd60e51b81526004016103eb90611120565b806001836040516109d59190610eef565b90815260405190819003602001902060040180546001600160a01b03929092166001600160a01b03199092169190911790555050565b336001600160a01b0316600182604051610a259190610eef565b908152604051908190036020019020600201546001600160a01b031614610a5e5760405162461bcd60e51b81526004016103eb906110da565b60018082604051610a6f9190610eef565b908152602001604051809103902060040160156101000a81548160ff0219169083151502179055507f6b861e3b476236514a7419e05b94b8ff6436f26e332989f3dfbec308f5ad875a81600183604051610ac99190610eef565b90815260405190819003602001812060040154610795929160ff600160a01b9092049190911690600190610f8f565b604080516060810182526001600160a01b038481168083526020808401868152600085870181905292835282825294909120835181546001600160a01b03191693169290921782559251805192939192610b589260018501920190610bdf565b50604091820151600291909101805460ff1916911515919091179055517f5fafd0dd4d160fd23cd8ad1c2da9bbad5f8505fcc0c8515e3047983281b9b0cd906109339084908490610f0b565b6040805160e0810182526060808252602082018190526000928201839052808201526080810182905260a0810182905260c081019190915290565b828054610beb9061126f565b90600052602060002090601f016020900481019282610c0d5760008555610c53565b82601f10610c2657805160ff1916838001178555610c53565b82800160010185558215610c53579182015b82811115610c53578251825591602001919060010190610c38565b50610c5f929150610cb8565b5090565b828054828255906000526020600020908101928215610c53579160200282015b82811115610c5357825182546001600160a01b0319166001600160a01b03909116178255602090920191600190910190610c83565b5b80821115610c5f5760008155600101610cb9565b80356001600160a01b03811681146106c557600080fd5b600082601f830112610cf4578081fd5b813567ffffffffffffffff80821115610d0f57610d0f6112aa565b604051601f8301601f191681016020018281118282101715610d3357610d336112aa565b604052828152848301602001861015610d4a578384fd5b82602086016020830137918201602001929092529392505050565b600060208284031215610d76578081fd5b610d7f82610ccd565b9392505050565b60008060408385031215610d98578081fd5b610da183610ccd565b9150602083013567ffffffffffffffff811115610dbc578182fd5b610dc885828601610ce4565b9150509250929050565b600060208284031215610de3578081fd5b813567ffffffffffffffff811115610df9578182fd5b610e0584828501610ce4565b949350505050565b60008060408385031215610e1f578182fd5b823567ffffffffffffffff811115610e35578283fd5b610e4185828601610ce4565b925050610e5060208401610ccd565b90509250929050565b60008060408385031215610e6b578182fd5b823567ffffffffffffffff80821115610e82578384fd5b610e8e86838701610ce4565b93506020850135915080821115610ea3578283fd5b50610dc885828601610ce4565b6001600160a01b03169052565b15159052565b60008151808452610edb81602086016020860161123f565b601f01601f19169290920160200192915050565b60008251610f0181846020870161123f565b9190910192915050565b6001600160a01b0383168152604060208201819052600090610e0590830184610ec3565b6001600160a01b0384168152606060208201819052600090610f5390830185610ec3565b90508215156040830152949350505050565b600060408252610f786040830185610ec3565b905060018060a01b03831660208301529392505050565b600060608252610fa26060830186610ec3565b931515602083015250901515604090910152919050565b600060c08252610fcc60c0830189610ec3565b8281036020840152610fde8189610ec3565b6001600160a01b039788166040850152959096166060830152509115156080830152151560a0909101529392505050565b6020808252602e908201527f4f6e6c79207665726966696564207061727469636970616e74732063616e207660408201526d65726966792070726f647563747360901b606082015260800190565b6020808252601b908201527f5061727469636970616e74206973206e6f742076657269666965640000000000604082015260600190565b60208082526026908201527f4f6e6c79207468652070726f64756365722063616e20616464207472616e73706040820152656f727465727360d01b606082015260800190565b60208082526026908201527f4f6e6c79207468652070726f64756365722063616e20666c61672074686520706040820152651c9bd91d58dd60d21b606082015260800190565b60208082526022908201527f4f6e6c79207468652070726f64756365722063616e207365742072657461696c60408201526132b960f11b606082015260800190565b60006020808352835160e08285015261117f610100850182610ec3565b905081850151601f198086840301604087015261119c8383610ec3565b60408801516001600160a01b03908116606089810191909152890151888303909301608089015282518083529286019450869350908501915b808410156111f7578451821683529385019360019390930192918501916111d5565b50506080870151935061120d60a0870185610eb0565b60a0870151935061122160c0870185610ebd565b60c0870151935061123560e0870185610ebd565b9695505050505050565b60005b8381101561125a578181015183820152602001611242565b83811115611269576000848401525b50505050565b60028104600182168061128357607f821691505b602082108114156112a457634e487b7160e01b600052602260045260246000fd5b50919050565b634e487b7160e01b600052604160045260246000fdfea2646970667358221220c68cbc7ef605181752035b660c3b4eb41ef19d92cb68587d3c77d2ad42442cbd64736f6c63430008000033",
  "immutableReferences": {},
  "source": "pragma solidity ^0.8.0;\n\ncontract SupplyChain {\n    struct Participant {\n        address participantAddress;\n        string participantType; // Producer, Certifier, Transporter, Retailer\n        bool isVerified;\n    }\n\n    struct Product {\n        string batchId;\n        string ipfsHash; // Hash of the sourcing certification document\n        address producer;\n        address[] transporters;\n        address retailer;\n        bool isVerified;\n        bool isFlagged;\n    }\n\n    mapping(address => Participant) public participants;\n    mapping(string => Product) public products;\n\n    event ParticipantOnboarded(address participantAddress, string participantType);\n    event ProductAdded(string batchId, address producer);\n    event ProductStatusUpdated(string batchId, bool isVerified, bool isFlagged);\n\n    modifier onlyVerified() {\n        require(participants[msg.sender].isVerified, \"Participant is not verified\");\n        _;\n    }\n\n    function onboardParticipant(address _participantAddress, string memory _participantType) public {\n        participants[_participantAddress] = Participant({\n            participantAddress: _participantAddress,\n            participantType: _participantType,\n            isVerified: false\n        });\n        emit ParticipantOnboarded(_participantAddress, _participantType);\n    }\n\n    function verifyParticipant(address _participantAddress) public {\n        participants[_participantAddress].isVerified = true;\n    }\n\n    function addProduct(string memory _batchId, string memory _ipfsHash) public onlyVerified {\n        products[_batchId] = Product({\n            batchId: _batchId,\n            ipfsHash: _ipfsHash,\n            producer: msg.sender,\n            transporters: new address[](0),\n            retailer: address(0),\n            isVerified: false,\n            isFlagged: false\n        });\n        emit ProductAdded(_batchId, msg.sender);\n    }\n\n    function addTransporter(string memory _batchId, address _transporter) public onlyVerified {\n        require(products[_batchId].producer == msg.sender, \"Only the producer can add transporters\");\n        products[_batchId].transporters.push(_transporter);\n    }\n\n    function setRetailer(string memory _batchId, address _retailer) public onlyVerified {\n        require(products[_batchId].producer == msg.sender, \"Only the producer can set retailer\");\n        products[_batchId].retailer = _retailer;\n    }\n\n    function flagProduct(string memory _batchId) public {\n        require(products[_batchId].producer == msg.sender, \"Only the producer can flag the product\");\n        products[_batchId].isFlagged = true;\n        emit ProductStatusUpdated(_batchId, products[_batchId].isVerified, true);\n    }\n\n    function verifyProduct(string memory _batchId) public {\n        require(participants[msg.sender].isVerified, \"Only verified participants can verify products\");\n        products[_batchId].isVerified = true;\n        emit ProductStatusUpdated(_batchId, true, products[_batchId].isFlagged);\n    }\n\n    function getProduct(string memory _batchId) public view returns (Product memory) {\n        return products[_batchId];\n    }\n}",
  "sourcePath": "C:\\Users\\CK\\ChethanPC\\VS CODE\\WEB3 Project\\blockchain-supplychain-app\\contracts\\SupplyChain.sol",
  "compiler": {
    "name": "solc",
    "version": "0.8.0+commit.c7dfd78e.Emscripten.clang"
  },
  "schemaVersion": "3.4.16",
  "updatedAt": "2025-05-26T09:05:11.557Z",
  "networkType": "ethereum",
  "devdoc": {
    "kind": "dev",
    "methods": {},
    "version": 1
  },
  "userdoc": {
    "kind": "user",
    "methods": {},
    "version": 1
  }
}